{
  "contractName": "EtherWallet",
  "abi": [
    {
      "inputs": [
        {
          "internalType": "address payable",
          "name": "_owner",
          "type": "address"
        }
      ],
      "payable": false,
      "stateMutability": "nonpayable",
      "type": "constructor"
    },
    {
      "constant": true,
      "inputs": [],
      "name": "Owner",
      "outputs": [
        {
          "internalType": "address payable",
          "name": "",
          "type": "address"
        }
      ],
      "payable": false,
      "stateMutability": "view",
      "type": "function"
    },
    {
      "constant": false,
      "inputs": [],
      "name": "depoist",
      "outputs": [],
      "payable": true,
      "stateMutability": "payable",
      "type": "function"
    },
    {
      "constant": false,
      "inputs": [
        {
          "internalType": "address payable",
          "name": "_to",
          "type": "address"
        },
        {
          "internalType": "uint256",
          "name": "_amount",
          "type": "uint256"
        }
      ],
      "name": "send",
      "outputs": [],
      "payable": false,
      "stateMutability": "nonpayable",
      "type": "function"
    },
    {
      "constant": false,
      "inputs": [
        {
          "internalType": "address payable[]",
          "name": "_to",
          "type": "address[]"
        },
        {
          "internalType": "uint256[]",
          "name": "_amount",
          "type": "uint256[]"
        }
      ],
      "name": "sendMultiple",
      "outputs": [],
      "payable": true,
      "stateMutability": "payable",
      "type": "function"
    },
    {
      "constant": true,
      "inputs": [],
      "name": "balanceOf",
      "outputs": [
        {
          "internalType": "uint256",
          "name": "",
          "type": "uint256"
        }
      ],
      "payable": false,
      "stateMutability": "view",
      "type": "function"
    }
  ],
  "bytecode": "0x608060405234801561001057600080fd5b506040516106613803806106618339818101604052602081101561003357600080fd5b8101908080519060200190929190505050806000806101000a81548173ffffffffffffffffffffffffffffffffffffffff021916908373ffffffffffffffffffffffffffffffffffffffff160217905550506105cd806100946000396000f3fe60806040526004361061004a5760003560e01c8063041bacd21461004f578063722713f714610059578063b4a99a4e14610084578063d0679d34146100db578063e8d6c36d14610136575b600080fd5b610057610282565b005b34801561006557600080fd5b5061006e610284565b6040518082815260200191505060405180910390f35b34801561009057600080fd5b5061009961028c565b604051808273ffffffffffffffffffffffffffffffffffffffff1673ffffffffffffffffffffffffffffffffffffffff16815260200191505060405180910390f35b3480156100e757600080fd5b50610134600480360360408110156100fe57600080fd5b81019080803573ffffffffffffffffffffffffffffffffffffffff169060200190929190803590602001909291905050506102b1565b005b6102806004803603604081101561014c57600080fd5b810190808035906020019064010000000081111561016957600080fd5b82018360208201111561017b57600080fd5b8035906020019184602083028401116401000000008311171561019d57600080fd5b919080806020026020016040519081016040528093929190818152602001838360200280828437600081840152601f19601f820116905080830192505050505050509192919290803590602001906401000000008111156101fd57600080fd5b82018360208201111561020f57600080fd5b8035906020019184602083028401116401000000008311171561023157600080fd5b919080806020026020016040519081016040528093929190818152602001838360200280828437600081840152601f19601f8201169050808301925050505050505091929192905050506103be565b005b565b600047905090565b6000809054906101000a900473ffffffffffffffffffffffffffffffffffffffff1681565b6000809054906101000a900473ffffffffffffffffffffffffffffffffffffffff1673ffffffffffffffffffffffffffffffffffffffff163373ffffffffffffffffffffffffffffffffffffffff1614610373576040517f08c379a00000000000000000000000000000000000000000000000000000000081526004018080602001828103825260158152602001807f73656e646572206973206e6f7420616c6c6f776564000000000000000000000081525060200191505060405180910390fd5b8173ffffffffffffffffffffffffffffffffffffffff166108fc829081150290604051600060405180830381858888f193505050501580156103b9573d6000803e3d6000fd5b505050565b6000809054906101000a900473ffffffffffffffffffffffffffffffffffffffff1673ffffffffffffffffffffffffffffffffffffffff163373ffffffffffffffffffffffffffffffffffffffff1614610480576040517f08c379a00000000000000000000000000000000000000000000000000000000081526004018080602001828103825260158152602001807f73656e646572206973206e6f7420616c6c6f776564000000000000000000000081525060200191505060405180910390fd5b80518251146104da576040517f08c379a00000000000000000000000000000000000000000000000000000000081526004018080602001828103825260308152602001806105696030913960400191505060405180910390fd5b60008090505b8251811015610563578281815181106104f557fe5b602002602001015173ffffffffffffffffffffffffffffffffffffffff166108fc83838151811061052257fe5b60200260200101519081150290604051600060405180830381858888f19350505050158015610555573d6000803e3d6000fd5b5080806001019150506104e0565b50505056fe6d7573742062652073616d65206c656e677468206f66207468652061646472657373657320616e6420616d6f756e7473a265627a7a72315820aacc10b8e34620a66efbe45be36b3075750c53039b182747e56af0c360e0b0a564736f6c63430005100032",
  "source": "pragma solidity >=0.4.16 <0.8.0;\r\n\r\ncontract EtherWallet {\r\n    address payable public Owner;\r\n\r\n    constructor(address payable _owner) public {\r\n        Owner = _owner;\r\n    }\r\n\r\n    function depoist() public payable {}\r\n\r\n    /*\r\n    send ethers from wallet contract to any address by contract owner\r\n     */\r\n    function send(address payable _to, uint256 _amount) public onlyOwner {\r\n        _to.transfer(_amount);\r\n    }\r\n\r\n    /*\r\n    send ethers from wallet contract(you should pay for this function) to multiple addresses by contract owner  \r\n     */\r\n    function sendMultiple(\r\n        address payable[] memory _to,\r\n        uint256[] memory _amount\r\n    ) public payable onlyOwner {\r\n        require(\r\n            _to.length == _amount.length,\r\n            \"must be same length of the addresses and amounts\"\r\n        );\r\n        for (uint256 i = 0; i < _to.length; i++) {\r\n            _to[i].transfer(_amount[i]);\r\n        }\r\n    }\r\n\r\n    function balanceOf() public view returns (uint256) {\r\n        return address(this).balance;\r\n    }\r\n\r\n    modifier onlyOwner() {\r\n        require(msg.sender == Owner, \"sender is not allowed\");\r\n        _;\r\n    }\r\n}\r\n",
  "sourcePath": "C:/blockchain/ethereum/projects/etherwallet/contracts/EtherWallet.sol",
  "compiler": {
    "name": "solc",
    "version": "0.5.16+commit.9c3226ce.Emscripten.clang"
  },
  "schemaVersion": "3.0.22",
  "updatedAt": "2020-08-30T20:42:40.062Z",
  "networkType": "ethereum",
  "devdoc": {
    "methods": {}
  },
  "userdoc": {
    "methods": {}
  }
}